{
  "contractName": "Crowdfunding",
  "abi": [
    {
      "anonymous": false,
      "inputs": [
        {
          "indexed": false,
          "internalType": "address",
          "name": "projectAddress",
          "type": "address"
        },
        {
          "indexed": false,
          "internalType": "uint256",
          "name": "contributedAmount",
          "type": "uint256"
        },
        {
          "indexed": true,
          "internalType": "address",
          "name": "contributor",
          "type": "address"
        }
      ],
      "name": "ContributionReceived",
      "type": "event"
    },
    {
      "anonymous": false,
      "inputs": [
        {
          "indexed": false,
          "internalType": "address",
          "name": "projectContractAddress",
          "type": "address"
        },
        {
          "indexed": false,
          "internalType": "address",
          "name": "creator",
          "type": "address"
        },
        {
          "indexed": false,
          "internalType": "uint256",
          "name": "minContribution",
          "type": "uint256"
        },
        {
          "indexed": false,
          "internalType": "uint256",
          "name": "projectDeadline",
          "type": "uint256"
        },
        {
          "indexed": false,
          "internalType": "uint256",
          "name": "goalAmount",
          "type": "uint256"
        },
        {
          "indexed": false,
          "internalType": "uint256",
          "name": "currentAmount",
          "type": "uint256"
        },
        {
          "indexed": false,
          "internalType": "uint256",
          "name": "noOfContributors",
          "type": "uint256"
        },
        {
          "indexed": false,
          "internalType": "string",
          "name": "title",
          "type": "string"
        },
        {
          "indexed": false,
          "internalType": "string",
          "name": "desc",
          "type": "string"
        },
        {
          "indexed": false,
          "internalType": "uint256",
          "name": "currentState",
          "type": "uint256"
        }
      ],
      "name": "ProjectStarted",
      "type": "event"
    },
    {
      "inputs": [
        {
          "internalType": "uint256",
          "name": "minimumContribution",
          "type": "uint256"
        },
        {
          "internalType": "uint256",
          "name": "deadline",
          "type": "uint256"
        },
        {
          "internalType": "uint256",
          "name": "targetContribution",
          "type": "uint256"
        },
        {
          "internalType": "string",
          "name": "projectTitle",
          "type": "string"
        },
        {
          "internalType": "string",
          "name": "projectDesc",
          "type": "string"
        }
      ],
      "name": "createProject",
      "outputs": [],
      "stateMutability": "nonpayable",
      "type": "function"
    },
    {
      "inputs": [],
      "name": "returnAllProjects",
      "outputs": [
        {
          "internalType": "contract Project[]",
          "name": "",
          "type": "address[]"
        }
      ],
      "stateMutability": "view",
      "type": "function",
      "constant": true
    },
    {
      "inputs": [
        {
          "internalType": "address",
          "name": "_projectAddress",
          "type": "address"
        }
      ],
      "name": "contribute",
      "outputs": [],
      "stateMutability": "payable",
      "type": "function",
      "payable": true
    }
  ],
  "bytecode": "0x608060405234801561001057600080fd5b50613660806100206000396000f3fe608060405260043610620000385760003560e01c806373e888fd146200003d57806385b6e28e146200005d578063a429078b146200008d575b600080fd5b6200005b60048036038101906200005591906200053a565b620000bb565b005b3480156200006a57600080fd5b506200007562000324565b60405162000084919062000694565b60405180910390f35b3480156200009a57600080fd5b50620000b96004803603810190620000b3919062000855565b620003b4565b005b60008173ffffffffffffffffffffffffffffffffffffffff1663937e09b16040518163ffffffff1660e01b8152600401602060405180830381865afa15801562000109573d6000803e3d6000fd5b505050506040513d601f19601f820116820180604052508101906200012f919062000932565b905060008273ffffffffffffffffffffffffffffffffffffffff1663c19d93fb6040518163ffffffff1660e01b8152600401602060405180830381865afa1580156200017f573d6000803e3d6000fd5b505050506040513d601f19601f82011682018060405250810190620001a591906200098c565b905060006002811115620001be57620001bd620009be565b5b816002811115620001d457620001d3620009be565b5b1462000217576040517f08c379a00000000000000000000000000000000000000000000000000000000081526004016200020e9062000a4e565b60405180910390fd5b813410156200025d576040517f08c379a0000000000000000000000000000000000000000000000000000000008152600401620002549062000ac0565b60405180910390fd5b8273ffffffffffffffffffffffffffffffffffffffff166373e888fd34336040518363ffffffff1660e01b815260040162000299919062000af3565b6000604051808303818588803b158015620002b357600080fd5b505af1158015620002c8573d6000803e3d6000fd5b50505050503373ffffffffffffffffffffffffffffffffffffffff167f0829c5c9dc5d14e41b11cfca0f01f76eba69b648ddcf9f84afba16ba8a76bf1c84346040516200031792919062000b21565b60405180910390a2505050565b60606000805480602002602001604051908101604052809291908181526020018280548015620003aa57602002820191906000526020600020905b8160009054906101000a900473ffffffffffffffffffffffffffffffffffffffff1673ffffffffffffffffffffffffffffffffffffffff16815260200190600101908083116200035f575b5050505050905090565b6000338686868686604051620003ca90620004b3565b620003db9695949392919062000bd0565b604051809103906000f080158015620003f8573d6000803e3d6000fd5b5090506000819080600181540180825580915050600190039060005260206000200160009091909190916101000a81548173ffffffffffffffffffffffffffffffffffffffff021916908373ffffffffffffffffffffffffffffffffffffffff1602179055507f73cc6512e7ecc537961f06c435b8c36be561c23851b3c990165a8cd7968dc6c681338888886000808a8a6000604051620004a39a9998979695949392919062000c8e565b60405180910390a1505050505050565b6128de8062000d4d83390190565b6000604051905090565b600080fd5b600080fd5b600073ffffffffffffffffffffffffffffffffffffffff82169050919050565b60006200050282620004d5565b9050919050565b6200051481620004f5565b81146200052057600080fd5b50565b600081359050620005348162000509565b92915050565b600060208284031215620005535762000552620004cb565b5b6000620005638482850162000523565b91505092915050565b600081519050919050565b600082825260208201905092915050565b6000819050602082019050919050565b6000819050919050565b6000620005c3620005bd620005b784620004d5565b62000598565b620004d5565b9050919050565b6000620005d782620005a2565b9050919050565b6000620005eb82620005ca565b9050919050565b620005fd81620005de565b82525050565b6000620006118383620005f2565b60208301905092915050565b6000602082019050919050565b600062000637826200056c565b62000643818562000577565b9350620006508362000588565b8060005b83811015620006875781516200066b888262000603565b975062000678836200061d565b92505060018101905062000654565b5085935050505092915050565b60006020820190508181036000830152620006b081846200062a565b905092915050565b6000819050919050565b620006cd81620006b8565b8114620006d957600080fd5b50565b600081359050620006ed81620006c2565b92915050565b600080fd5b600080fd5b6000601f19601f8301169050919050565b7f4e487b7100000000000000000000000000000000000000000000000000000000600052604160045260246000fd5b6200074882620006fd565b810181811067ffffffffffffffff821117156200076a57620007696200070e565b5b80604052505050565b60006200077f620004c1565b90506200078d82826200073d565b919050565b600067ffffffffffffffff821115620007b057620007af6200070e565b5b620007bb82620006fd565b9050602081019050919050565b82818337600083830152505050565b6000620007ee620007e88462000792565b62000773565b9050828152602081018484840111156200080d576200080c620006f8565b5b6200081a848285620007c8565b509392505050565b600082601f8301126200083a5762000839620006f3565b5b81356200084c848260208601620007d7565b91505092915050565b600080600080600060a08688031215620008745762000873620004cb565b5b60006200088488828901620006dc565b95505060206200089788828901620006dc565b9450506040620008aa88828901620006dc565b935050606086013567ffffffffffffffff811115620008ce57620008cd620004d0565b5b620008dc8882890162000822565b925050608086013567ffffffffffffffff8111156200090057620008ff620004d0565b5b6200090e8882890162000822565b9150509295509295909350565b6000815190506200092c81620006c2565b92915050565b6000602082840312156200094b576200094a620004cb565b5b60006200095b848285016200091b565b91505092915050565b600381106200097257600080fd5b50565b600081519050620009868162000964565b92915050565b600060208284031215620009a557620009a4620004cb565b5b6000620009b58482850162000975565b91505092915050565b7f4e487b7100000000000000000000000000000000000000000000000000000000600052602160045260246000fd5b600082825260208201905092915050565b7f496e76616c696420737461746500000000000000000000000000000000000000600082015250565b600062000a36600d83620009ed565b915062000a4382620009fe565b602082019050919050565b6000602082019050818103600083015262000a698162000a27565b9050919050565b7f436f6e747269627574696f6e20616d6f756e7420697320746f6f206c6f772021600082015250565b600062000aa8602083620009ed565b915062000ab58262000a70565b602082019050919050565b6000602082019050818103600083015262000adb8162000a99565b9050919050565b62000aed81620004f5565b82525050565b600060208201905062000b0a600083018462000ae2565b92915050565b62000b1b81620006b8565b82525050565b600060408201905062000b38600083018562000ae2565b62000b47602083018462000b10565b9392505050565b600081519050919050565b60005b8381101562000b7957808201518184015260208101905062000b5c565b8381111562000b89576000848401525b50505050565b600062000b9c8262000b4e565b62000ba88185620009ed565b935062000bba81856020860162000b59565b62000bc581620006fd565b840191505092915050565b600060c08201905062000be7600083018962000ae2565b62000bf6602083018862000b10565b62000c05604083018762000b10565b62000c14606083018662000b10565b818103608083015262000c28818562000b8f565b905081810360a083015262000c3e818462000b8f565b9050979650505050505050565b6000819050919050565b600062000c7662000c7062000c6a8462000c4b565b62000598565b620006b8565b9050919050565b62000c888162000c55565b82525050565b60006101408201905062000ca6600083018d62000ae2565b62000cb5602083018c62000ae2565b62000cc4604083018b62000b10565b62000cd3606083018a62000b10565b62000ce2608083018962000b10565b62000cf160a083018862000c7d565b62000d0060c083018762000c7d565b81810360e083015262000d14818662000b8f565b905081810361010083015262000d2b818562000b8f565b905062000d3d61012083018462000c7d565b9b9a505050505050505050505056fe60806040526000600960006101000a81548160ff021916908360028111156200002d576200002c620001b5565b5b02179055506000600c553480156200004457600080fd5b50604051620028de380380620028de83398181016040528101906200006a919062000421565b856000806101000a81548173ffffffffffffffffffffffffffffffffffffffff021916908373ffffffffffffffffffffffffffffffffffffffff1602179055508460018190555083600281905550826003819055508160079080519060200190620000d792919062000105565b508060089080519060200190620000f092919062000105565b50600060058190555050505050505062000560565b82805462000113906200052a565b90600052602060002090601f01602090048101928262000137576000855562000183565b82601f106200015257805160ff191683800117855562000183565b8280016001018555821562000183579182015b828111156200018257825182559160200191906001019062000165565b5b50905062000192919062000196565b5090565b5b80821115620001b157600081600090555060010162000197565b5090565b7f4e487b7100000000000000000000000000000000000000000000000000000000600052602160045260246000fd5b6000604051905090565b600080fd5b600080fd5b600073ffffffffffffffffffffffffffffffffffffffff82169050919050565b60006200022582620001f8565b9050919050565b620002378162000218565b81146200024357600080fd5b50565b60008151905062000257816200022c565b92915050565b6000819050919050565b62000272816200025d565b81146200027e57600080fd5b50565b600081519050620002928162000267565b92915050565b600080fd5b600080fd5b6000601f19601f8301169050919050565b7f4e487b7100000000000000000000000000000000000000000000000000000000600052604160045260246000fd5b620002ed82620002a2565b810181811067ffffffffffffffff821117156200030f576200030e620002b3565b5b80604052505050565b600062000324620001e4565b9050620003328282620002e2565b919050565b600067ffffffffffffffff821115620003555762000354620002b3565b5b6200036082620002a2565b9050602081019050919050565b60005b838110156200038d57808201518184015260208101905062000370565b838111156200039d576000848401525b50505050565b6000620003ba620003b48462000337565b62000318565b905082815260208101848484011115620003d957620003d86200029d565b5b620003e68482856200036d565b509392505050565b600082601f83011262000406576200040562000298565b5b815162000418848260208601620003a3565b91505092915050565b60008060008060008060c08789031215620004415762000440620001ee565b5b60006200045189828a0162000246565b96505060206200046489828a0162000281565b95505060406200047789828a0162000281565b94505060606200048a89828a0162000281565b935050608087015167ffffffffffffffff811115620004ae57620004ad620001f3565b5b620004bc89828a01620003ee565b92505060a087015167ffffffffffffffff811115620004e057620004df620001f3565b5b620004ee89828a01620003ee565b9150509295509295509295565b7f4e487b7100000000000000000000000000000000000000000000000000000000600052602260045260246000fd5b600060028204905060018216806200054357607f821691505b602082108114156200055a5762000559620004fb565b5b50919050565b61236e80620005706000396000f3fe60806040526004361061011f5760003560e01c8063937e09b1116100a0578063c19d93fb11610064578063c19d93fb146103bc578063c3e20c9f146103e7578063c59ee1dc14610412578063d5cef1331461043d578063ff3a9c7e146104685761011f565b8063937e09b1146102d1578063992a7dfb146102fc578063a46752ae1461033d578063b40141bf14610366578063b82c86d6146103915761011f565b80634c4cea5a116100e75780634c4cea5a1461020d5780634e695a37146102385780636f9fb98a1461026157806373e888fd1461028c578063752e19f9146102a85761011f565b806302d05d3f1461012457806303c29d581461014f5780630a7713701461017a57806324274ee9146101b757806329dcb0cf146101e2575b600080fd5b34801561013057600080fd5b5061013961049c565b604051610146919061157f565b60405180910390f35b34801561015b57600080fd5b506101646104c0565b6040516101719190611633565b60405180910390f35b34801561018657600080fd5b506101a1600480360381019061019c91906116a7565b61054e565b6040516101ae91906116ed565b60405180910390f35b3480156101c357600080fd5b506101cc610566565b6040516101d991906116ed565b60405180910390f35b3480156101ee57600080fd5b506101f761056c565b60405161020491906116ed565b60405180910390f35b34801561021957600080fd5b50610222610572565b60405161022f91906116ed565b60405180910390f35b34801561024457600080fd5b5061025f600480360381019061025a9190611734565b610578565b005b34801561026d57600080fd5b5061027661075d565b60405161028391906116ed565b60405180910390f35b6102a660048036038101906102a191906116a7565b610765565b005b3480156102b457600080fd5b506102cf60048036038101906102ca9190611734565b61097e565b005b3480156102dd57600080fd5b506102e6610c8d565b6040516102f391906116ed565b60405180910390f35b34801561030857600080fd5b50610323600480360381019061031e9190611734565b610c93565b60405161033495949392919061177c565b60405180910390f35b34801561034957600080fd5b50610364600480360381019061035f9190611937565b610d7e565b005b34801561037257600080fd5b5061037b610fcf565b60405161038891906116ed565b60405180910390f35b34801561039d57600080fd5b506103a6610fd5565b6040516103b391906116ed565b60405180910390f35b3480156103c857600080fd5b506103d1610fdb565b6040516103de9190611a1d565b60405180910390f35b3480156103f357600080fd5b506103fc610fee565b6040516104099190611633565b60405180910390f35b34801561041e57600080fd5b5061042761107c565b60405161043491906116ed565b60405180910390f35b34801561044957600080fd5b50610452611082565b60405161045f9190611a38565b60405180910390f35b34801561047457600080fd5b5061047d61129a565b6040516104939a99989796959493929190611a53565b60405180910390f35b60008054906101000a900473ffffffffffffffffffffffffffffffffffffffff1681565b600880546104cd90611b2c565b80601f01602080910402602001604051908101604052809291908181526020018280546104f990611b2c565b80156105465780601f1061051b57610100808354040283529160200191610546565b820191906000526020600020905b81548152906001019060200180831161052957829003601f168201915b505050505081565b600a6020528060005260406000206000915090505481565b60065481565b60025481565b60045481565b6000600a60003373ffffffffffffffffffffffffffffffffffffffff1673ffffffffffffffffffffffffffffffffffffffff16815260200190815260200160002054116105fa576040517f08c379a00000000000000000000000000000000000000000000000000000000081526004016105f190611baa565b60405180910390fd5b6000600b60008381526020019081526020016000209050600015158160030160003373ffffffffffffffffffffffffffffffffffffffff1673ffffffffffffffffffffffffffffffffffffffff16815260200190815260200160002060009054906101000a900460ff161515146106a6576040517f08c379a000000000000000000000000000000000000000000000000000000000815260040161069d90611c16565b60405180910390fd5b60018160030160003373ffffffffffffffffffffffffffffffffffffffff1673ffffffffffffffffffffffffffffffffffffffff16815260200190815260200160002060006101000a81548160ff02191690831515021790555060018160020160008282546107159190611c65565b925050819055507fa2925e4595bf873fa82c22a1a89809777347023bf2b502d32710157a5eb8199c338260020154604051610751929190611cca565b60405180910390a15050565b600047905090565b600080600281111561077a576107796119a6565b5b600960009054906101000a900460ff16600281111561079c5761079b6119a6565b5b146107dc576040517f08c379a00000000000000000000000000000000000000000000000000000000081526004016107d390611d3f565b60405180910390fd5b6002544210610820576040517f08c379a000000000000000000000000000000000000000000000000000000000815260040161081790611dab565b60405180910390fd5b600154341015610865576040517f08c379a000000000000000000000000000000000000000000000000000000000815260040161085c90611e17565b60405180910390fd5b6000600a60008473ffffffffffffffffffffffffffffffffffffffff1673ffffffffffffffffffffffffffffffffffffffff1681526020019081526020016000205414156108c657600660008154809291906108c090611e37565b91905055505b34600a60008473ffffffffffffffffffffffffffffffffffffffff1673ffffffffffffffffffffffffffffffffffffffff16815260200190815260200160002060008282546109159190611c65565b92505081905550346005600082825461092e9190611c65565b925050819055507f5cdc4ab8d637538ead6cc1904d4160343656c8c82bd266635cfd31ac008fffe0823460055460405161096a93929190611e80565b60405180910390a161097a611420565b5050565b60008054906101000a900473ffffffffffffffffffffffffffffffffffffffff1673ffffffffffffffffffffffffffffffffffffffff163373ffffffffffffffffffffffffffffffffffffffff1614610a0c576040517f08c379a0000000000000000000000000000000000000000000000000000000008152600401610a0390611f29565b60405180910390fd5b6002806002811115610a2157610a206119a6565b5b600960009054906101000a900460ff166002811115610a4357610a426119a6565b5b14610a83576040517f08c379a0000000000000000000000000000000000000000000000000000000008152600401610a7a90611d3f565b60405180910390fd5b6002544210610ac7576040517f08c379a0000000000000000000000000000000000000000000000000000000008152600401610abe90611dab565b60405180910390fd5b6000600b60008481526020019081526020016000209050600015158160040160009054906101000a900460ff16151514610b36576040517f08c379a0000000000000000000000000000000000000000000000000000000008152600401610b2d90611f95565b60405180910390fd5b6002600654610b459190611fe4565b81600201541015610b8b576040517f08c379a0000000000000000000000000000000000000000000000000000000008152600401610b8290612087565b60405180910390fd5b8060040160019054906101000a900473ffffffffffffffffffffffffffffffffffffffff1673ffffffffffffffffffffffffffffffffffffffff166108fc82600101549081150290604051600060405180830381858888f19350505050158015610bf9573d6000803e3d6000fd5b5060018160040160006101000a81548160ff0219169083151502179055507f2af8d60b878c5e8de57c8ff96e03c6cfab6de26b47e989757345cc1dceaac99883826000018360010154846002015460018660040160019054906101000a900473ffffffffffffffffffffffffffffffffffffffff16604051610c809695949392919061219b565b60405180910390a1505050565b60015481565b600b602052806000526040600020600091509050806000018054610cb690611b2c565b80601f0160208091040260200160405190810160405280929190818152602001828054610ce290611b2c565b8015610d2f5780601f10610d0457610100808354040283529160200191610d2f565b820191906000526020600020905b815481529060010190602001808311610d1257829003601f168201915b5050505050908060010154908060020154908060040160009054906101000a900460ff16908060040160019054906101000a900473ffffffffffffffffffffffffffffffffffffffff16905085565b60008054906101000a900473ffffffffffffffffffffffffffffffffffffffff1673ffffffffffffffffffffffffffffffffffffffff163373ffffffffffffffffffffffffffffffffffffffff1614610e0c576040517f08c379a0000000000000000000000000000000000000000000000000000000008152600401610e0390611f29565b60405180910390fd5b6002806002811115610e2157610e206119a6565b5b600960009054906101000a900460ff166002811115610e4357610e426119a6565b5b14610e83576040517f08c379a0000000000000000000000000000000000000000000000000000000008152600401610e7a90611d3f565b60405180910390fd5b6002544210610ec7576040517f08c379a0000000000000000000000000000000000000000000000000000000008152600401610ebe90611dab565b60405180910390fd5b6000600b6000600c5481526020019081526020016000209050600c6000815480929190610ef390611e37565b919050555084816000019080519060200190610f1092919061149b565b508381600101819055506000816002018190555060008160040160006101000a81548160ff021916908315150217905550828160040160016101000a81548173ffffffffffffffffffffffffffffffffffffffff021916908373ffffffffffffffffffffffffffffffffffffffff1602179055507f9883a4e4f8698e4cc93bafb8d0d2376cb8c51dd322cb9fd80d02c691fcdea503600c54868660008088604051610fc09695949392919061223e565b60405180910390a15050505050565b600c5481565b60035481565b600960009054906101000a900460ff1681565b60078054610ffb90611b2c565b80601f016020809104026020016040519081016040528092919081815260200182805461102790611b2c565b80156110745780601f1061104957610100808354040283529160200191611074565b820191906000526020600020905b81548152906001019060200180831161105757829003601f168201915b505050505081565b60055481565b60006001806002811115611099576110986119a6565b5b600960009054906101000a900460ff1660028111156110bb576110ba6119a6565b5b146110fb576040517f08c379a00000000000000000000000000000000000000000000000000000000081526004016110f290611d3f565b60405180910390fd5b600254421061113f576040517f08c379a000000000000000000000000000000000000000000000000000000000815260040161113690611dab565b60405180910390fd5b6000600a60003373ffffffffffffffffffffffffffffffffffffffff1673ffffffffffffffffffffffffffffffffffffffff16815260200190815260200160002054116111c1576040517f08c379a00000000000000000000000000000000000000000000000000000000081526004016111b890612318565b60405180910390fd5b60003390508073ffffffffffffffffffffffffffffffffffffffff166108fc600a60003373ffffffffffffffffffffffffffffffffffffffff1673ffffffffffffffffffffffffffffffffffffffff168152602001908152602001600020549081150290604051600060405180830381858888f1935050505015801561124b573d6000803e3d6000fd5b506000600a60003373ffffffffffffffffffffffffffffffffffffffff1673ffffffffffffffffffffffffffffffffffffffff1681526020019081526020016000208190555060019250505090565b60008060008060008060608060008060008054906101000a900473ffffffffffffffffffffffffffffffffffffffff16995060015498506002549750600354965060045495506005549450600780546112f290611b2c565b80601f016020809104026020016040519081016040528092919081815260200182805461131e90611b2c565b801561136b5780601f106113405761010080835404028352916020019161136b565b820191906000526020600020905b81548152906001019060200180831161134e57829003601f168201915b505050505093506008805461137f90611b2c565b80601f01602080910402602001604051908101604052809291908181526020018280546113ab90611b2c565b80156113f85780601f106113cd576101008083540402835291602001916113f8565b820191906000526020600020905b8154815290600101906020018083116113db57829003601f168201915b50505050509250600960009054906101000a900460ff16915047905090919293949596979899565b6003546005541061145b576002600960006101000a81548160ff02191690836002811115611451576114506119a6565b5b0217905550611492565b600254421115611491576001600960006101000a81548160ff0219169083600281111561148b5761148a6119a6565b5b02179055505b5b42600481905550565b8280546114a790611b2c565b90600052602060002090601f0160209004810192826114c95760008555611510565b82601f106114e257805160ff1916838001178555611510565b82800160010185558215611510579182015b8281111561150f5782518255916020019190600101906114f4565b5b50905061151d9190611521565b5090565b5b8082111561153a576000816000905550600101611522565b5090565b600073ffffffffffffffffffffffffffffffffffffffff82169050919050565b60006115698261153e565b9050919050565b6115798161155e565b82525050565b60006020820190506115946000830184611570565b92915050565b600081519050919050565b600082825260208201905092915050565b60005b838110156115d45780820151818401526020810190506115b9565b838111156115e3576000848401525b50505050565b6000601f19601f8301169050919050565b60006116058261159a565b61160f81856115a5565b935061161f8185602086016115b6565b611628816115e9565b840191505092915050565b6000602082019050818103600083015261164d81846115fa565b905092915050565b6000604051905090565b600080fd5b600080fd5b60006116748261153e565b9050919050565b61168481611669565b811461168f57600080fd5b50565b6000813590506116a18161167b565b92915050565b6000602082840312156116bd576116bc61165f565b5b60006116cb84828501611692565b91505092915050565b6000819050919050565b6116e7816116d4565b82525050565b600060208201905061170260008301846116de565b92915050565b611711816116d4565b811461171c57600080fd5b50565b60008135905061172e81611708565b92915050565b60006020828403121561174a5761174961165f565b5b60006117588482850161171f565b91505092915050565b60008115159050919050565b61177681611761565b82525050565b600060a082019050818103600083015261179681886115fa565b90506117a560208301876116de565b6117b260408301866116de565b6117bf606083018561176d565b6117cc6080830184611570565b9695505050505050565b600080fd5b600080fd5b7f4e487b7100000000000000000000000000000000000000000000000000000000600052604160045260246000fd5b611818826115e9565b810181811067ffffffffffffffff82111715611837576118366117e0565b5b80604052505050565b600061184a611655565b9050611856828261180f565b919050565b600067ffffffffffffffff821115611876576118756117e0565b5b61187f826115e9565b9050602081019050919050565b82818337600083830152505050565b60006118ae6118a98461185b565b611840565b9050828152602081018484840111156118ca576118c96117db565b5b6118d584828561188c565b509392505050565b600082601f8301126118f2576118f16117d6565b5b813561190284826020860161189b565b91505092915050565b6119148161155e565b811461191f57600080fd5b50565b6000813590506119318161190b565b92915050565b6000806000606084860312156119505761194f61165f565b5b600084013567ffffffffffffffff81111561196e5761196d611664565b5b61197a868287016118dd565b935050602061198b8682870161171f565b925050604061199c86828701611922565b9150509250925092565b7f4e487b7100000000000000000000000000000000000000000000000000000000600052602160045260246000fd5b600381106119e6576119e56119a6565b5b50565b60008190506119f7826119d5565b919050565b6000611a07826119e9565b9050919050565b611a17816119fc565b82525050565b6000602082019050611a326000830184611a0e565b92915050565b6000602082019050611a4d600083018461176d565b92915050565b600061014082019050611a69600083018d611570565b611a76602083018c6116de565b611a83604083018b6116de565b611a90606083018a6116de565b611a9d60808301896116de565b611aaa60a08301886116de565b81810360c0830152611abc81876115fa565b905081810360e0830152611ad081866115fa565b9050611ae0610100830185611a0e565b611aee6101208301846116de565b9b9a5050505050505050505050565b7f4e487b7100000000000000000000000000000000000000000000000000000000600052602260045260246000fd5b60006002820490506001821680611b4457607f821691505b60208210811415611b5857611b57611afd565b5b50919050565b7f4f6e6c7920636f6e7472696275746f722063616e20766f746520210000000000600082015250565b6000611b94601b836115a5565b9150611b9f82611b5e565b602082019050919050565b60006020820190508181036000830152611bc381611b87565b9050919050565b7f596f7520616c726561647920766f746564202100000000000000000000000000600082015250565b6000611c006013836115a5565b9150611c0b82611bca565b602082019050919050565b60006020820190508181036000830152611c2f81611bf3565b9050919050565b7f4e487b7100000000000000000000000000000000000000000000000000000000600052601160045260246000fd5b6000611c70826116d4565b9150611c7b836116d4565b9250827fffffffffffffffffffffffffffffffffffffffffffffffffffffffffffffffff03821115611cb057611caf611c36565b5b828201905092915050565b611cc481611669565b82525050565b6000604082019050611cdf6000830185611cbb565b611cec60208301846116de565b9392505050565b7f496e76616c696420737461746500000000000000000000000000000000000000600082015250565b6000611d29600d836115a5565b9150611d3482611cf3565b602082019050919050565b60006020820190508181036000830152611d5881611d1c565b9050919050565b7f446561646c696e65206861732070617373656420210000000000000000000000600082015250565b6000611d956015836115a5565b9150611da082611d5f565b602082019050919050565b60006020820190508181036000830152611dc481611d88565b9050919050565b7f436f6e747269627574696f6e20616d6f756e7420697320746f6f206c6f772021600082015250565b6000611e016020836115a5565b9150611e0c82611dcb565b602082019050919050565b60006020820190508181036000830152611e3081611df4565b9050919050565b6000611e42826116d4565b91507fffffffffffffffffffffffffffffffffffffffffffffffffffffffffffffffff821415611e7557611e74611c36565b5b600182019050919050565b6000606082019050611e956000830186611cbb565b611ea260208301856116de565b611eaf60408301846116de565b949350505050565b7f596f7520646f6e7420686176652061636365737320746f20706572666f726d2060008201527f74686973206f7065726174696f6e202100000000000000000000000000000000602082015250565b6000611f136030836115a5565b9150611f1e82611eb7565b604082019050919050565b60006020820190508181036000830152611f4281611f06565b9050919050565b7f5265717565737420616c726561647920636f6d706c6574656400000000000000600082015250565b6000611f7f6019836115a5565b9150611f8a82611f49565b602082019050919050565b60006020820190508181036000830152611fae81611f72565b9050919050565b7f4e487b7100000000000000000000000000000000000000000000000000000000600052601260045260246000fd5b6000611fef826116d4565b9150611ffa836116d4565b92508261200a57612009611fb5565b5b828204905092915050565b7f4174206c656173742035302520636f6e7472696275746f72206e65656420746f60008201527f20766f746520666f722074686973207265717565737400000000000000000000602082015250565b60006120716036836115a5565b915061207c82612015565b604082019050919050565b600060208201905081810360008301526120a081612064565b9050919050565b60008190508160005260206000209050919050565b600081546120c981611b2c565b6120d381866115a5565b945060018216600081146120ee576001811461210057612133565b60ff1983168652602086019350612133565b612109856120a7565b60005b8381101561212b5781548189015260018201915060208101905061210c565b808801955050505b50505092915050565b6000819050919050565b600061216161215c6121578461153e565b61213c565b61153e565b9050919050565b600061217382612146565b9050919050565b600061218582612168565b9050919050565b6121958161217a565b82525050565b600060c0820190506121b060008301896116de565b81810360208301526121c281886120bc565b90506121d160408301876116de565b6121de60608301866116de565b6121eb608083018561176d565b6121f860a083018461218c565b979650505050505050565b6000819050919050565b600061222861222361221e84612203565b61213c565b6116d4565b9050919050565b6122388161220d565b82525050565b600060c08201905061225360008301896116de565b818103602083015261226581886115fa565b905061227460408301876116de565b612281606083018661222f565b61228e608083018561176d565b61229b60a083018461218c565b979650505050505050565b7f596f7520646f6e74206861766520616e7920636f6e747269627574656420616d60008201527f6f756e7420210000000000000000000000000000000000000000000000000000602082015250565b60006123026026836115a5565b915061230d826122a6565b604082019050919050565b60006020820190508181036000830152612331816122f5565b905091905056fea2646970667358221220daea5ba224e1e2aeb17bfcdd96e152c9d6e285547e2d4f522ae2c4952267991364736f6c634300080b0033a2646970667358221220d07e44d69b4ff0c24d41ef3a038c6254a881d9099be8ffcb4a3ad6c1139384ef64736f6c634300080b0033",
  "immutableReferences": {},
  "source": "//SPDX-License-Identifier: Unlicense\npragma solidity ^0.8.0;\n\nimport \"hardhat/console.sol\";\nimport './Project.sol';\n\ncontract Crowdfunding{\n\n// [X] Anyone can start a funding project .\n// [X] Get All project list\n// [X]  contribute amount\n\nevent ProjectStarted(\n    address projectContractAddress ,\n    address creator,\n    uint256 minContribution,\n    uint256 projectDeadline,\n    uint256 goalAmount,\n    uint256 currentAmount,\n    uint256 noOfContributors,\n    string title,\n    string desc,\n    uint256 currentState\n);\n\nevent ContributionReceived(\n   address projectAddress,\n   uint256 contributedAmount,\n   address indexed contributor\n);\n\n Project[] private projects;\n\n  // @dev Anyone can start a fund rising\n // @return null\n\n function createProject(\n    uint256 minimumContribution,\n    uint256 deadline,\n    uint256 targetContribution,\n    string memory projectTitle,\n    string memory projectDesc\n ) public {\n\n   deadline = deadline;\n\n   Project newProject = new Project(msg.sender,minimumContribution,deadline,targetContribution,projectTitle,projectDesc);\n   projects.push(newProject);\n \n emit ProjectStarted(\n    address(newProject) ,\n    msg.sender,\n    minimumContribution,\n    deadline,\n    targetContribution,\n    0,\n    0,\n    projectTitle,\n    projectDesc,\n    0\n );\n\n }\n\n // @dev Get projects list\n// @return array\n\nfunction returnAllProjects() external view returns(Project[] memory){\n   return projects;\n}\n\n// @dev User can contribute\n// @return null\n\nfunction contribute(address _projectAddress) public payable{\n\n   uint256 minContributionAmount = Project(_projectAddress).minimumContribution();\n   Project.State projectState = Project(_projectAddress).state();\n   require(projectState == Project.State.Fundraising,'Invalid state');\n   require(msg.value >= minContributionAmount,'Contribution amount is too low !');\n   // Call function\n   Project(_projectAddress).contribute{value:msg.value}(msg.sender);\n   // Trigger event \n   emit ContributionReceived(_projectAddress,msg.value,msg.sender);\n}\n\n}\n\n",
  "sourcePath": "/home/spandan/Desktop/web3/Crowdfunding/truffle/contracts/Crowdfunding.sol",
  "compiler": {
    "name": "solc",
    "version": "0.8.11+commit.d7f03943.Emscripten.clang"
  },
  "schemaVersion": "3.4.4",
  "updatedAt": "2022-06-30T16:31:17.999Z",
  "networkType": "ethereum",
  "devdoc": {
    "kind": "dev",
    "methods": {},
    "version": 1
  },
  "userdoc": {
    "kind": "user",
    "methods": {},
    "version": 1
  }
}